:020000040800F2
:10000000000400200B0300086509000867090008C8
:100010006B0900086F090008730900080000000060
:100020000000000000000000000000007709000848
:1000300079090008000000007B0900087D0900081C
:100040002B0300082B0300082B0300082B030008D8
:100050002B0300082B030008E1060008FD0600083A
:1000600019070008350700082B0300082B030008B8
:100070002B0300082B0300082B0300082B030008A8
:100080002B0300082B0300082B0300082B03000898
:100090002B0300082B0300082B0300082B03000888
:1000A0002B0300082B0300082B0300082B03000878
:1000B0002B0300082B0300082B0300082B03000868
:1000C0002B0300082B0300082B0300082B03000858
:1000D0002B030008CD0800082B0300082B030008A1
:1000E0002B0300082B0300082B0300082B03000838
:1000F0002B0300082B0300082B0300082B03000828
:100100002B0300082B0300082B0300082B03000817
:100110002B0300082B0300082B0300082B03000807
:100120002B0300082B0300082B0300082B030008F7
:1001300000F002F800F03AF80AA090E8000C8244BF
:100140008344AAF10107DA4501D100F02FF8AFF29C
:10015000090EBAE80F0013F0010F18BFFB1A43F0A5
:10016000010318471423000034230000103A24BF71
:1001700078C878C1FAD8520724BF30C830C144BF0C
:1001800004680C607047000000230024002500264E
:10019000103A28BF78C1FBD8520728BF30C148BFEA
:1001A0000B6070471FB51FBD10B510BD02F0E4F81D
:1001B0001146FFF7F7FF00F0DDF902F016F903B47E
:1001C000FFF7F2FF03BC00F0F3FA00000CB50020CB
:1001D000019000904848006840F48030464908602B
:1001E00000BF4548006800F4003000900198401CB2
:1001F0000190009818B90198B0F5A06FF1D13E4870
:10020000006800F4003010B10120009001E00020EF
:1002100000900098012844D13848006840F0100050
:10022000364908600846006820F003000860084668
:10023000006840F0020008602F4840682E4948607E
:100240000846406848600846406840F4806048605E
:100250000846406820F47C1048600846406840F436
:10026000E81048600846006840F08070086000BFF1
:100270002148006800F000700028F9D01E4840684E
:1002800020F003001C4948600846406840F0020026
:10029000486000BF1848406800F00C000828F9D1F9
:1002A00001E000BFFEE70CBD10B5FFF78FFF10BDEA
:1002B00010B51148006840F001000F490860084679
:1002C00040680F4908400C494860084600680D49DD
:1002D0000840094908600846006820F4802008604A
:1002E0000846406820F4FE0048604FF41F00886014
:1002F000FFF7DAFF10BD00000010024000200240AE
:100300000000FFF8FFFFF6FE70470B4880470B49DF
:1003100081F308880A480047FEE7FEE7FEE7FEE7AC
:10032000FEE7FEE7FEE7FEE7FEE7FEE705480649D3
:10033000064A074B70470000090300089008002098
:100340003101000890000020900800209004002057
:100350009004002001460020092903DC01F130024D
:10036000D0B206E00A2904DB0F2902DC01F13702D2
:10037000D0B27047002109E0002201E0531C9AB27C
:1003800042F614039A42F9DB4B1C99B28142F3DB2B
:1003900070471FB50446684601F096F86020ADF836
:1003A0000000ADF806400020ADF808000120ADF8CF
:1003B00002006946800700F0B1FE0821C80601F07E
:1003C000E5F90121880701F0A7F81FBD0EB501214D
:1003D000084600F050FD4FF0804000F0A3FD4FF0C4
:1003E000804001F0C1F841F61F40ADF80400002044
:1003F000ADF80000ADF80600ADF8020069464FF018
:10040000804000F0F1FD0121880701F079F9012118
:10041000880701F075F80EBD0EB501219D2000F092
:100420001DFD10208DF80B0003208DF80A000B2015
:10043000ADF8080002A9CD4801F072FD0720ADF823
:10044000080002A9CA4801F06BFD0420ADF80800BD
:1004500002A9C84801F064FD4FF40060ADF808003F
:1004600002A9C54801F05CFD0420ADF80800182081
:100470008DF80B0003208DF80A0002A9BB4801F09B
:100480004FFD0F20ADF8080048208DF80B0002A9A1
:10049000B94801F045FD0021052001F047FE01208B
:1004A000009000208DF804000C208DF8050001203C
:1004B0008DF80600684601F07FFE0121052001F05D
:1004C00035FE02200090684601F076FE02210520EC
:1004D00001F02CFE04200090684601F06DFE03211F
:1004E000052001F023FE08200090684601F064FE1C
:1004F0000EBD08B500214FF0006000F00AFB4FF47C
:10050000A06000F0CFFA25208DF8000002208DF8C1
:10051000010000208DF8020001208DF803006846DC
:1005200000F0C5FA03208DF8010006208DF80000C8
:1005300002208DF80200684600F0B9FA07208DF815
:10054000000002208DF80200684600F0B0FA082092
:100550008DF8000002208DF80200684600F0A7FA2E
:1005600009208DF8000002208DF80200684600F096
:100570009EFA08BD0EB50020009001900290FFF792
:1005800097FEFFF7B6FFFFF747FF00F061F94FF462
:10059000E13000F07DF9FFF719FF4FF4E160FFF75C
:1005A000F8FE764801F08AFE99E075480088401C04
:1005B0007349088008460088B0F5E15F05DA08460F
:1005C00001884FF0804001F039FA6D480088B0F59D
:1005D000E15F02DB00206A4908800120FFF7CAFEC4
:1005E0006848007801283FD10020664908706648B5
:1005F00000784F2838D1644840784E2834D162487A
:10060000807844281ED006DC412809D042280DD02D
:10061000432827D110E046281AD0502822D11DE0C7
:100620005A4800F0FBF800F0ABF91CE0584800F025
:10063000F5F800F0C2F916E0564800F0EFF800F0C7
:10064000D9F910E0544800F0E9F800F0EFF90AE0B9
:10065000524800F0E3F800F005FA04E0684600F0C4
:10066000DDF800E000BF00BF0A208DF808004C480C
:10067000048804F00F00FFF76DFE8DF80700C4F347
:100680000710FFF767FE8DF806004648048804F05F
:100690000F00FFF75FFE8DF80500C4F30710FFF7AA
:1006A00059FE8DF804004048048804F00F00FFF75D
:1006B00051FE8DF80300C4F30710FFF74BFE8DF8D1
:1006C00002003A48048804F00F00FFF743FE8DF85B
:1006D0000100C4F30710FFF73DFE8DF8000064E74A
:1006E00010B5012001F0CEFD38B1012001F0DBFD95
:1006F0002B480088401C2A49088010BD10B50220F4
:1007000001F0C0FD38B1022001F0CDFD2548008880
:10071000401C2449088010BD10B5042001F0B2FD32
:1007200038B1042001F0BFFD1F480088401C1E495D
:10073000088010BD10B5082001F0A4FD38B10820D4
:1007400001F0B1FD19480088401C1849088010BD0F
:10075000002107E0002201E0531C9AB2092AFBDBCA
:100760004B1C99B28142F5DB704700000008014044
:10077000000C014000100140001C0140042400084E
:1007800000000020110000200C0000203F24000881
:100790004A24000856240008622400086F24000838
:1007A00008000020060000200400002002000020B5
:1007B000014600BF704770B504460D4600BF80215A
:1007C000614801F0F3FA0028F9D0A1B25E4801F0C7
:1007D00096FA204670BD10B5044600BF80215A48E5
:1007E00001F0E4FA0028F9D02146574801F087FAD1
:1007F00010BD10B500BF2021534801F0D7FA0028E2
:10080000F9D0514801F07FFAC0B210BD10B50D20EB
:10081000FFF7E1FF0A20FFF7DEFF10BD70B50546C8
:10082000284601F057FD401E86B2002404E0285DF2
:10083000FFF7D1FF601C84B2B442F8DB285D0A28C0
:1008400002D1FFF7E3FF02E0285DFFF7C4FF70BDB0
:1008500008B5012144F2040000F000FB4FF40070E1
:10086000ADF8000018208DF8030003208DF8020079
:100870006946364801F054FB4FF48060ADF8000043
:1008800004208DF803006946304801F049FB08BD9B
:100890001FB5044600940020ADF80400ADF8060032
:1008A000ADF80800ADF80C000C20ADF80A00694660
:1008B000254801F046F9012240F22551224801F075
:1008C000BDF90121204801F0ADF91FBD10B540F27E
:1008D00025511D4801F080FA40F225511A4801F0D7
:1008E000A5FA194801F00FFA19490870084600786E
:1008F0004F280CD11748007848B9084600781649A7
:10090000144A127888540120144908701AE01348D8
:100910000078012816D10F480078401C0D49087056
:100920000B4800780C490B4A127888540948007823
:10093000022807DB002007490870084908700120D9
:100940000749087010BD0000003801400008014050
:1009500014000020130000200C00002012000020D2
:1009600011000020704700BFFEE700BFFEE700BF98
:10097000FEE700BFFEE77047704770477047000012
:1009800001204349086000204249C1F88801012044
:100990003F49091D086000203F49086001203F4988
:1009A000086000203D49083908600120091F0860DF
:1009B00000203B49C1F88801704700203449086095
:1009C00001203449C1F8880100203149091D08601F
:1009D00001203149086000203049086001202F497A
:1009E000083908600020091F086001202C49C1F85F
:1009F0008801704700202649086001202549C1F878
:100A0000880100202249091D086001202249086050
:100A10002249086000202149083908600120091F87
:100A2000086000201E49C1F888017047012018495C
:100A3000086000201749C1F8880101201449091DE8
:100A40000860002014490860144908600120134917
:100A5000083908600020091F086001201049C1F80A
:100A60008801704700200A4908600A49C1F88801D6
:100A70000749091D086008490860084908600749D6
:100A800008390860091F08600549C1F888017047E6
:100A90008081214200802142AC8123428C0121428D
:100AA0000000224231490143314A1160704770B55C
:100AB000002100230F22C47804B32D4C246804F4D1
:100AC000E064C4F5E064210AC1F10403CA4044783B
:100AD00004FA03F18478144021430901254C067877
:100AE000A155047804F01F050124AC4005786D1170
:100AF000AD0005F1E025C5F8004109E0047804F0F7
:100B00001F050124AC401C4D0678761145F826409F
:100B100070BD1A4A0A400243154B1B1F1A607047EA
:100B200039B1134A121D12680243114B1B1D1A6082
:100B300006E00F4A121D126882430D4B1B1D1A60FE
:100B40007047042808D14FF0E021096941F0040101
:100B50004FF0E022116107E04FF0E021096921F038
:100B600004014FF0E0221161704700000000FA0517
:100B70000CED00E000E400E080E100E080FFFF1FFA
:100B8000DF48006840F00100DD4908600846406821
:100B9000DC490840DA49486008460068DA490840FC
:100BA000D74908600846006820F48020086008469D
:100BB000406820F4FE0048604FF41F0088607047D2
:100BC000CF49096821F48031CD4A11601146096886
:100BD00021F480211160B0F5803F03D0B0F5802F63
:100BE0000ED106E0C649096841F48031C44A11605B
:100BF00007E0C349096841F4A021C14A116000E03F
:100C000000BF00BF704710B501460022002300203E
:100C10004A11012A02D1BA4C236806E0022A02D105
:100C2000B74C236A01E0B64C636A01F01F0201244D
:100C300094401C400CB1012000E0002010BD38B5EC
:100C4000002000900024002500BF3120FFF7DBFFCB
:100C500005460098401C00900098B0F5A06F01D0A8
:100C6000002DF2D03120FFF7CEFF08B1012400E0C3
:100C70000024204638BD01460020A14A106820F01B
:100C8000F80040EAC10010607047A0490860704752
:100C9000024600209A4B586820F47C1042EA010377
:100CA0001843974B5860704798490866704701464B
:100CB0000020934A506820F00300084350607047BA
:100CC0008F48406800F00C007047014600208C4AB5
:100CD000506820F0F0000843506070470146002043
:100CE000874A506820F4E06008435060704701462E
:100CF0000020834A506820F4605040EAC1005060F0
:100D0000704729B17E4A527A02437D4B5A7204E001
:100D10007B4A527A82437A4B5A7270477B49D83168
:100D20000860704701460020754A506820F4404032
:100D30000843506070470021714A20321170704A98
:100D400082F82010012802D004280AD104E00121F1
:100D50006B4A2032117005E00521694A203211707A
:100D600000E000BF00BF70476949086070476449F0
:100D7000096A0143624A1162704765494439086053
:100D8000704730B500210022002400235C4D6D68BF
:100D900005F00C0121B1042905D0082923D105E073
:100DA0005C4D056022E05B4D05601FE0544D6D68B1
:100DB00005F47012524D6D6805F48034022505EB80
:100DC00092421CB9544D554305600BE04C4D6D6883
:100DD00005F400351DB1504D5543056002E04D4D01
:100DE0005543056002E04B4D056000BF00BF444D18
:100DF0006D6805F0F0010909484D6B5C0568DD4040
:100E000045603F4D6D6805F4E061090A434D6B5C38
:100E10004568DD4085603A4D6D6805F46051C90A4A
:100E20003E4D6B5C4568DD40C560354D6D6805F431
:100E30004041890B3A4D6B5CC568B5FBF3F5056124
:100E400030BD29B12E4A526902432D4B5A6104E04C
:100E50002B4A526982432A4B5A61704729B1284A6A
:100E600092690243264B9A6104E0254A92698243C3
:100E7000234B9A61704729B1214AD2690243204B22
:100E8000DA6104E01E4AD26982431D4BDA61704781
:100E900029B11B4AD2680243194BDA6004E0184AB0
:100EA000D2688243164BDA60704729B1144A12693E
:100EB0000243134B1A6104E0114A12698243104B3A
:100EC0001A61704712494039086070470F49C86479
:100ED00070470B49C87170470948406A40F08070FC
:100EE00007494862704701460020054A92680A4057
:100EF0000AB1012000E00020704701498872704764
:100F0000001002400000FFF8FFFFF6FE0000424222
:100F10008004424200127A0000093D001C000020BB
:100F20002C00002010B50446FE48844208D101215F
:100F3000C014FFF7ADFF0021E014FFF7A9FF52E056
:100F4000B4F1804F08D101210846FFF7AEFF002120
:100F50000120FFF7AAFF46E0F348844208D10121AF
:100F60000220FFF7A2FF00210220FFF79EFF3AE0D8
:100F7000EE48844208D101210420FFF796FF0021AA
:100F80000420FFF792FF2EE0E948844208D10121B6
:100F90000820FFF78AFF00210820FFF786FF22E0E4
:100FA000E448844208D101211020FFF77EFF002190
:100FB0001020FFF77AFF16E0DF48844208D10121B4
:100FC0002020FFF772FF00212020FFF76EFF0AE0CC
:100FD000DA48844207D101214014FFF759FF00216C
:100FE0006014FFF755FF10BD028802F08F020280E7
:100FF000CA884B881A4303881A4302808A888285EC
:101000000A880285C74A904202D0CC4A904201D158
:101010000A7A028601228282704770B5002400227B
:101020000023058C4FF6FE7635400584028C8388BC
:10103000048B4FF68F752C400D882C43751E2A406B
:101040000D892A434D882A43CD888586B54DA8420F
:1010500002D0BA4DA84213D14FF6F7752A404D89F8
:101060002A434FF6FB752A408D882A4347F6FF65D1
:101070002B4047F6FF552B408D892B43CD892B43C1
:1010800083800483028470BD70B500240022002395
:10109000058C4FF6EF7635400584028C8388048BEF
:1010A00048F6FF752C400D884FF6FF7606EA0525B9
:1010B0002C434FF6DF752A400D8906EA05152A43B1
:1010C0004D8806EA05152A43CD880587954DA84227
:1010D00002D09A4DA8421DD14FF67F752A404D8906
:1010E0004FF6FF7606EA05152A434FF6BF752A40EC
:1010F0008D8806EA05152A4347F6FF352B4047F24F
:10110000FF752B408D8906EA85052B43CD8906EABC
:1011100085052B4383800483028470BD70B5002451
:1011200000220023058C4FF6FF6635400584028CB3
:101130008388848B4FF68F752C400D882C434FF697
:10114000FF552A400D894FF6FF7606EA05252A430A
:101150004D8806EA05252A43CD888587714DA8422A
:1011600002D0764DA8421DD14FF2FF752A404D891D
:101170004FF6FF7606EA05252A434FF6FF352A404B
:101180008D8806EA05252A4346F6FF752B4045F66D
:10119000FF752B408D8906EA05152B43CD8906EA9C
:1011A00005152B4383808483028470BD70B50024B1
:1011B00000220023058C4EF6FF7635400584028C14
:1011C0008388848B48F6FF752C400D884FF6FF7698
:1011D00006EA05252C434DF6FF752A400D8906EADF
:1011E00005352A434D8806EA05352A43CD88A0F8FF
:1011F00040504C4DA84202D0504DA84207D1C3F3F5
:101200000D038D894FF6FF7606EA85152B43838003
:101210008483028470BD828B4FF2FF331A40828335
:10122000828B4FF6FF7303EA01231A4382837047D0
:10123000F0B50C461546002100220026078C4EF61C
:10124000FF7C07EA0C070784818B028C4FF6FF773F
:1012500007EA043640F6FF4739404FF6FF7707EAC2
:10126000052739434FF6FF7707EA033739434DF631
:10127000FF773A4046F480573A4381830284F0BDB9
:10128000828B4FF6F3731A408283828B0A438283E8
:101290007047F0B50C461546002100220026078C49
:1012A0004FF6FF6C07EA0C070784818B028C4FF620
:1012B000FF7707EA04264FF60C7739404FF6FF77A1
:1012C00007EA03172F4339434FF6FF573A4046F4D6
:1012D00080773A4381830284F0BD028B4FF2FF3363
:1012E0001A400283028B4FF6FF7303EA01231A436D
:1012F00002837047F0B50C461546002100220026F7
:10130000078C4FF6EF7C07EA0C070784018B028CF1
:101310004FF6FF7707EA041640F6FF4739404FF6CD
:10132000FF770DE0002C0140000400400008004061
:10133000000C004000100040001400400034014048
:1013400007EA033739434FF6FF7707EA05273943A2
:101350004FF6DF773A4046F010073A4301830284A4
:10136000F0BD028B4FF6F3731A400283028B0A43DF
:1013700002837047F0B50C46154600210022068C0A
:101380004FF6FE773E400684018B028C4FF60C76BA
:1013900031407E1C06EA03162E4331437E1E324046
:1013A00044F00106324301830284F0BD70B5054666
:1013B0000C46208850B92389A28861882846FFF707
:1013C000D9FFE1882846FFF7CCFF25E020880428D4
:1013D0000AD12389A28861882846FFF78BFFE1881C
:1013E0002846FFF77AFF17E0208808280AD12389CA
:1013F000A28861882846FFF74CFFE1882846FFF75E
:101400003FFF09E02389A28861882846FFF710FF83
:10141000E1882846FFF7FFFE70BD2DE9F041054643
:101420000C4600260127608808B9022600E0002645
:10143000A088012801D1022700E001272088A0B957
:101440002389A28861882846FFF794FFE18828460F
:10145000FFF787FF23893A4631462846FFF74AFFC0
:10146000E1882846FFF739FF13E02389A2886188C5
:101470002846FFF73FFFE1882846FFF72EFF238924
:101480003A4631462846FFF775FFE1882846FFF7C0
:1014900068FFBDE8F0810A884B881A438B881A439D
:1014A000CB881A430B891A434B891A438B891A43F9
:1014B000A0F8442070474FF6FF7181800021018021
:1014C000C18041800172704700210180418081808C
:1014D000C180018141818181C181704700210180EA
:1014E0004180012181800021C1800181704700215C
:1014F000018041808180C18001814181818170476B
:1015000021B1028842F00102028004E0028840F228
:10151000FE331A400280704731B1B0F8442042F4E3
:101520000042A0F8442005E0B0F84420C2F30E02C7
:10153000A0F8442070471AB183890B43838102E0ED
:1015400083898B43838170478182704741EA02031C
:10155000A0F8483070471AB183890B43838102E0B9
:1015600083898B438381704701894FF6F87211405C
:10157000018170470A46002101894FF68F73194097
:1015800011430181704730B504460D462946204677
:10159000FFF7F0FF208940F00700208130BD2DE9E2
:1015A000F04104460D4616461F46602D06D13B46C7
:1015B000012231462046FFF79DFE05E03B46012211
:1015C00031462046FFF7D6FE29462046FFF7D2FFD8
:1015D000208940F007002081BDE8F08130B50C463D
:1015E00000210189C9B24FF6FF7505EA03251543AD
:1015F00025432943018130BD2DE9F04105460E46C2
:1016000017469846002443463A4631462846FFF797
:10161000E5FF2C894FF6F870044044F007044FF6BC
:101620008F70044044F070042C81BDE8F081F0B567
:1016300004460D4616461F463B463246294620467E
:10164000FFF7CCFF208940F480402081F0BD018568
:10165000828270470A460021018840F28F33194088
:10166000114301807047F0B50C4615461E46002117
:10167000002200230189028B038C4FF6F877394052
:1016800021434FF6FC473A4040F201173A434FF6E8
:10169000DD773B404FF6FF7707EA06172F433B43C2
:1016A000018102830384F0BD0A460021018B4FF6BD
:1016B0008F7319401143018370470A460021018B43
:1016C00048F6FF7319404FF6FF7303EA02231943EC
:1016D000018370470A460021818B4FF68F731940B2
:1016E0001143818370470A460021818B48F6FF73BE
:1016F00019404FF6FF7303EA0223194381837047B1
:1017000021B1028842F08002028004E0028840F2A7
:101710007F331A400280704721B1828842F0040270
:10172000828004E082884FF6FB731A408280704703
:1017300021B1828842F00802828004E082884FF65C
:10174000F7731A408280704721B1828842F001020B
:10175000828004E082884FF6FE731A4082807047D0
:101760000A460021018B4FF6F7731940114301839C
:1017700070470A460021018B4FF2FF7319404FF664
:10178000FF7303EA02231943018370470A460021CD
:10179000818B4FF6F77319401143818370470A46D6
:1017A0000021818B4FF2FF7319404FF6FF7303EA5C
:1017B00002231943818370470A460021018B4FF6AB
:1017C000FB7319401143018370470A460021018BC6
:1017D0004FF6FF3319404FF6FF7303EA0223194314
:1017E000018370470A460021818B4FF6FB73194035
:1017F0001143818370470A460021818B4FF6FF33E6
:1018000019404FF6FF7303EA02231943818370479F
:101810000A460021018B4FF67F7319401143018363
:1018200070470A460021018BC1F30E014FF6FF738A
:1018300003EA02231943018370470A460021818B82
:101840004FF67F7319401143818370470A46002188
:10185000818BC1F30E014FF6FF7303EA0223194394
:10186000818370470A460021018C4FF6FD731940B1
:101870001143018470470A460021018C4FF6F7732B
:1018800019401143018470470A460021018C4FF62C
:10189000DF7319404FF6FF7303EA02131943018403
:1018A00070470A460021018C4FF67F7319404FF6AE
:1018B000FF7303EA02131943018470470A460021AB
:1018C000018C4FF6FF5319404FF6FF7303EA0223D2
:1018D0001943018470470A460021018C4FF2FF73BF
:1018E00019404FF6FF7303EA02231943018470473E
:1018F0000A460021018C4DF6FF7319404FF6FF7325
:1019000003EA023319430184704730B500230124F0
:101910008C40A3B2048C9C430484048C02FA01F52D
:10192000ADB22C43048430BD30B5002304248C4078
:10193000A3B2048C9C430484048C02FA01F5ADB27A
:101940002C43048430BD70B50346002000241846A3
:10195000183001258D40ACB21D8CA5431D8409B102
:1019600008290AD100EB610005684FF68F763540F3
:1019700005600568154305600FE00D1FC5F34E05B2
:101980002844056848F6FF763540056005684FF63F
:10199000FF7606EA02263543056070BD21B1028854
:1019A00042F00202028004E0028840F2FD331A4055
:1019B0000280704721B1028842F00402028004E0F4
:1019C000028840F2FB331A400280704721B18288BE
:1019D00042F08002828004E082884FF67F731A40D2
:1019E00082807047028840F2F7331A4002800288F2
:1019F0000A430280704782884FF68F731A408280B4
:101A000082880A438280704702894FF6F8731A4031
:101A1000028102890A430281704702894FF67F736F
:101A20001A40028102890A4302817047818470470B
:101A3000818570478186704701877047818770472D
:101A4000A0F8401070470288D2B2028002880A4390
:101A5000028070470146888E70470146088F7047A4
:101A60000146888F70470146B1F840007047014633
:101A7000888C70470146088D704702460020138A03
:101A80000B400BB1012000E000207047CA430282E6
:101A9000704730B50246002000230024158A05EA6D
:101AA0000103958905EA010413B10CB1012000E09E
:101AB000002030BDCA4302827047000010B50446C2
:101AC000E248844209D101218803FFF7E1F90021AE
:101AD0004FF48040FFF7DCF932E0DD48844209D161
:101AE00001214804FFF7E1F900214FF40030FFF72E
:101AF000DCF925E0D748844209D101218804FFF7A9
:101B0000D4F900214FF48020FFF7CFF918E0D24834
:101B1000844209D10121C804FFF7C7F900214FF41D
:101B20000020FFF7C2F90BE0CC48844208D1012124
:101B30000805FFF7BAF900214FF48010FFF7B5F957
:101B400010BD2DE9F04786B005460E460024A2469A
:101B500000BF00BF0027B08900B100BF2F462C8A0C
:101B60004CF6FF700440F08804432C82AC894EF69A
:101B7000F3100440B0883189084371890843044355
:101B8000AC81AC8A4FF6FF400440B0890443AC827C
:101B900001A8FFF7F6F8AD48874202D1DDF810A0A2
:101BA00001E0DDF80CA00AEBCA0000EB0A10316876
:101BB0008900B0FBF1F86420B8FBF0F004012009C3
:101BC000642101FB1089322000EB0910B0FBF1F019
:101BD00000F00F0004432C8106B0BDE8F0874FF4FD
:101BE0001651016000218180C18001810C21418159
:101BF00000218181704710B502460020108A4FF203
:101C0000FF0318400B884C8823438C882343CC88DF
:101C100023431843108210BD002101804180818040
:101C2000C180704721B1828942F40052828104E070
:101C300082894DF6FF731A4082817047F0B50346E2
:101C4000002400260025002040F66A17B94200D182
:101C500000BF1846C1F3421401F01F06012707FA1E
:101C600006F5012C01D10C3004E0022C01D110301A
:101C700000E014301AB107682F43076002E00768DC
:101C8000AF430760F0BD1AB1838A0B43838202E041
:101C9000838A8B4383827047028A4FF6F0731A401F
:101CA0000282028A0A430282704782894FF2FF73DE
:101CB0001A40828182890A438281704721B18289D8
:101CC00042F00202828104E082894FF6FD731A40DD
:101CD00082817047028A4FF6DF731A400282028ABD
:101CE0000A430282704721B1028A42F48042028292
:101CF00004E0028A4BF6FF731A4002827047C1F378
:101D000008028280704701468888C0F30800704747
:101D1000818941F0010181817047028BD2B2028337
:101D2000028B42EA012202837047028B02F47F4257
:101D30000283028B0A430283704721B1828A42F0F8
:101D40002002828204E0828A4FF6DF731A40828288
:101D5000704721B1828A42F01002828204E0828AB6
:101D60004FF6EF731A408282704721B1828A42F0A7
:101D70000802828204E0828A4FF6F7731A40828258
:101D80007047828A4FF6FB731A408282828A0A4326
:101D90008282704721B1828A42F00202828204E08C
:101DA000828A4FF6FD731A408282704702460020F5
:101DB000B1F5007F00D100BF13880B400BB10120AB
:101DC00000E00020704701F40072B2F5007F00D1FE
:101DD00000BFCA430280704770B50246002400234A
:101DE0000025002040F66A16B14200D100BFC1F3C1
:101DF000421501F01F03012606FA03F3012D02D15B
:101E00009689334006E0022D02D1168A334001E064
:101E1000968A33400C12012606FA04F416883440E0
:101E200013B10CB1012000E0002070BD10B50022FC
:101E3000002340F66A14A14200D100BF0A12012417
:101E40009440A3B2DC43048010BD00000038014080
:101E50000044004000480040004C0040005000405A
:101E600010B50446C448844208D101210420FFF77C
:101E70000FF800210420FFF70BF846E0BF4884422A
:101E800008D101210820FFF703F800210820FEF700
:101E9000FFFF3AE0BA48844208D101211020FEF742
:101EA000F7FF00211020FEF7F3FF2EE0B548844233
:101EB00008D101212020FEF7EBFF00212020FEF7B2
:101EC000E7FF22E0B048844208D101214020FEF71C
:101ED000DFFF00214020FEF7DBFF16E0AB48844225
:101EE00008D101218020FEF7D3FF00218020FEF7DA
:101EF000CFFF0AE0A648844207D101218015FEF7F2
:101F0000C7FF0021A015FEF7C3FF10BD10B50121CA
:101F10000846FEF7BDFF00210120FEF7B9FF10BD06
:101F20002DE9F04102460025002600200023002470
:101F3000002791F803C00CF00F0591F803C00CF0D6
:101F4000100CBCF1000F03D091F802C04CEA05055B
:101F500091F800C0BCF1000F31D0146800202BE0D4
:101F60004FF0010C0CFA00F3B1F800C00CEA0306C4
:101F70009E4220D183004FF00F0C0CFA03F7BC43B4
:101F800005FA03FC4CEA040491F803C0BCF1280FE5
:101F900006D14FF0010C0CFA00FCC2F814C00AE0A4
:101FA00091F803C0BCF1480F05D14FF0010C0CFAB9
:101FB00000FCC2F810C0401C0828D1D31460B1F84E
:101FC00000C0BCF1FF0F34DD546800202EE000F1AA
:101FD000080C4FF0010808FA0CF3B1F800C00CEA45
:101FE00003069E4221D183004FF00F0C0CFA03F739
:101FF000BC4305FA03FC4CEA040491F803C0BCF1AD
:10200000280F05D100F1080C08FA0CF8C2F814806A
:1020100091F803C0BCF1480F07D100F1080C4FF054
:10202000010808FA0CF8C2F81080401C0828CED32A
:102030005460BDE8F0814FF6FF710180022181708C
:102040000421C17070470246002093680B400BB119
:10205000012000E0002070470146886880B2704788
:1020600002460020D3680B400BB1012000E00020A5
:1020700070470146C86880B270470161704741618E
:1020800070470AB1016100E041617047C16070476B
:102090004FF480320A438261816182618269826980
:1020A0007047024600203B4B18684FF6807318407B
:1020B00040EA02100843374B186070473649C86140
:1020C0007047F0B50A460023002400210025314E58
:1020D0007168C0F3034583B200F44016B6F5401FA3
:1020E00008D121F070612B4E766826F07066294F7A
:1020F0007E6012E000F48016B6F5801F06D103263C
:1021000006FA05F4A14341F0706106E0460D360180
:1021100003FA06F6B14341F0706122B1460D360173
:1021200003FA06F631431B4E7160F0BD30B5002254
:102130008B071C0F0F2303FA04F2164B08338C1085
:1021400053F824309343134C08348D1044F8253051
:1021500023468C1053F824308C07240F00FA04F423
:1021600023430C4C08348D1044F8253030BD0A4907
:10217000DC3108607047000000080140000C01409D
:10218000001001400014014000180140001C0140F3
:10219000002001400000014000002042002044498E
:1021A0000860091D0860091D0860091D0860414894
:1021B0003F4914310860704700213D498279002A67
:1021C0003AD00A46126803689A430B461A600A1D01
:1021D000126803689A430B1D1A60027911440A6859
:1021E00003681A430A60324A0832126803689A4345
:1021F0002F4B08331A601A1D126803689A432C4B40
:102200000C331A604279102A0ED11A1F1268036823
:102210001A43274B08331A601A1D126803681A43C1
:10222000234B0C331A600DE02149427911440A68AE
:1022300003681A430A6005E0027911440A680368DA
:102240009A430A6070470021016001710C214171BD
:102250000021817170471649103109680143144A01
:1022600010321160704701460020114A1432126882
:102270000A400AB1012000E0002070470C491431E7
:1022800008607047014600200022094B1B6803EAE2
:102290000102074B14331B680B4013B10AB1012034
:1022A00000E00020704702491431086070470000C8
:1022B00000040140FFFF0F00704700000FB4044905
:1022C00010B503AA029800F029F810BC5DF814FBC1
:1022D0001800002010B5431C02E010F8011B71B17A
:1022E0008107FAD14FF0013202C88C1A8C4314EAEC
:1022F000C211F9D0C01A0A0603D0C01E10BDC01A00
:1023000010BD0A0401D0801E10BD0902FCD0401E81
:1023100010BD70477047704770470000074B70B59D
:102320000D467B4400F011F80446284600F020F8E2
:1023300010B14FF0FF3070BD204670BD91E4FFFF3B
:1023400001694A1C02610878704700B58FB0CDE979
:1023500001310021059105497944CDE90310114669
:10236000684600F02EF80FB000BD0000E5FFFFFF4B
:10237000007B00F080007047754600F03FF8AE46E5
:1023800005006946534620F00700854618B020B581
:10239000FDF7CCFFBDE820404FF000064FF00007EE
:1023A0004FF000084FF0000B21F00701AC46ACE8FD
:1023B000C009ACE8C009ACE8C009ACE8C0098D466A
:1023C00070472DE9F04106460024D6E90170F56812
:1023D0008046304603E04146B847641C3046A84773
:1023E0000028F8D12046BDE8F08110B50446AFF3CF
:1023F00000802046BDE81040FDF7E1BE0048704770
:10240000300000200A0D2B2A2A2A2A2A2A2A2A2AC0
:102410002A2A2A2A2A2A2A2A2A2A2A2A20534D41C3
:10242000525420434152202A2A2A2A2A2A2A2A2A76
:102430002A2A2A2A2A2A2A2A2A2A2A2B0A0D004745
:102440006F204168656164210A004472617720420F
:1024500061636B210A005475726E204C65667421AD
:102460000A005475726E205269676874210A00531D
:10247000746F70210A0000009824000800000020FA
:10248000300000006C010008C82400083000002063
:102490006008000088010008000000000000000043
:1024A000000000000000000000000000000000002C
:1024B0000000000000000000010203040102030408
:0824C0000607080902040608E2
:0400000508000131BD
:00000001FF
